:100000000C948A0C0C946B420C948B420C94A70CAD
:100010000C94A70C0C94A70C0C94A70C0C94A70C94
:100020000C94A70C0C9495420C94A70C0C94A70C60
:100030000C94A70C0C94A70C0C94A70C0C94A70C74
:100040000C94DE420C94A70C0C94A70C0C94A70CF7
:100050000C9412430C9439430C9468430C94A70CF1
:100060000C94A70C0C94A70C0C94A70C0C94A70C44
:100070000C94A70C0C94A70C0C94A70C322E3236BF
:100080002E30300034059A024C01A50052002900A0
:100090001B00171515151515170012121212121242
:1000A000120017111117141417001711111711113D
:1000B0001700151515171111110017141417111128
:1000C0001700171414171515170000000000000082
:1000D000000092009A00A200AA00B200BA00C2007A
:1000E000CA004845414400474554202F005245422C
:1000F0004F4F540D0A0052455345540D0A004750C6
:1001000053000200000000004B44422D534E545057
:100110002D534552564552006E7470312E6A7374D9
:100120002E6D666565642E61642E6A70006E747053
:10013000322E6A73742E6D666565642E61642E6A54
:1001400070006E7470332E6A73742E6D666565640C
:100150002E61642E6A70006E74702E6E6963742E48
:100160006A700018012D0142015701C607E6070613
:100170000826083031323334353637383941424376
:1001800044454600485454502F312E3120323030EF
:1001900020485454500D0A436F6E6E656374696F46
:1001A0006E3A20636C6F73650D0A436F6E74656EF3
:1001B000742D547970653A20746578742F68746D65
:1001C0006C0D0A43616368652D436F6E74726F6CCA
:1001D0003A206E6F2D63616368650D0A436F6E741C
:1001E000656E742D4C616E67756167653A20656E4A
:1001F0000D0A0D0A00485454502F312E3120323050
:1002000030204F4B0D0A436F6E6E656374696F6EDD
:100210003A20636C6F73650D0A436F6E74656E747C
:100220002D547970653A20746578742F68746D6CFC
:100230000D0A43616368652D436F6E74726F6C3A8B
:10024000206E6F2D63616368650D0A436F6E746580
:100250006E742D4C616E67756167653A20656E0D31
:100260000A0D0A3C21444F43545950452048544DEF
:100270004C205055424C494320222D2F2F573343B9
:100280002F2F4454442048544D4C20342E303120DC
:100290005472616E736974696F6E616C2F2F454E75
:1002A000222022687474703A2F2F7777772E773355
:1002B0002E6F72672F54522F68746D6C342F6C6FD1
:1002C0006F73652E647464223E3C48544D4C3E3C32
:1002D000484541443E3C5449544C453E4B44422DD4
:1002E000534E54502D534552564552205345545564
:1002F000503C2F5449544C453E3C2F484541443EC8
:100300003C424F4459204247434F4C4F523D2223D9
:100310004646464646464646223E3C43454E5445A2
:10032000523E3C423E00223E3C2F464F524D3E3C08
:1003300042523E3C464F4E5420434F4C4F523D227A
:10034000475245454E223E56414C55452053415655
:1003500045443C2F464F4E543E3C42523E00223EC6
:100360003C42523E3C42523E3C494E505554205431
:100370005950453D225355424D4954222056414C37
:1003800055453D224150504C59223E3C2F464F523C
:100390004D3E004950004E4D00475700444E00422C
:1003A00043009303960399039C039F0320002400BA
:1003B00028002C00C0006601A8C000FFFFFF01015B
:1003C000A8C00101A8C0FF01A8C049502041444471
:1003D00052455353005355424E4554204D41534BC3
:1003E000004741544557415900444E53205345520C
:1003F000564552004144445245535300CA03D50365
:10040000E103E903F4034E31004E32004E33004E57
:100410003400060409040C040F0453455256455297
:1004200031005345525645523200534552564552BB
:10043000330053455256455234001A0422042A040C
:100440003204400060008000A00000504F57455229
:10045000204F4E0045585445524E414C2052455372
:1004600045540042524F574E204F55542052455349
:100470004554005741544348444F472054494D4543
:100480005220524553455400454E4332384A363087
:100490002052454345495645204552524F5200414E
:1004A000525020524551554553542054494D454FC3
:1004B0005554204552524F520049434D502050410F
:1004C000434B455420434845434B2053554D20450D
:1004D00052524F5200544350205041434B455420F8
:1004E000434845434B2053554D204552524F5200EF
:1004F000554450205041434B455420434845434BBD
:100500002053554D204552524F520049434D5020E3
:100510004D455353414745004448435020524543BD
:1005200045495645204E414B2852455452592900C1
:10053000444843502052454E4557414C2053544166
:100540005445004448435020524542494E442053AC
:100550005441544500444843502045585049524561
:10056000442053544154450044484350205245438D
:1005700045495645205041434B4554204552524F22
:1005800052004E425420524543454956452045525B
:10059000524F52004E425420464F524D4154204536
:1005A00052524F52004E4254205041434B4554202A
:1005B0004552524F52004E42542054494D45204F0F
:1005C0005554285345525645523129004E42542025
:1005D00054494D45204F55542853455256455232A3
:1005E00029004E42542054494D45204F555428531C
:1005F00045525645523329004E42542054494D45E8
:10060000204F555428534552564552342900444EE4
:10061000532054494D45204F555428534552564573
:1006200052312900444E532054494D45204F5554D2
:1006300028534552564552322900444E53205449BE
:100640004D45204F555428534552564552332900A5
:10065000444E532054494D45204F5554285345523C
:100660005645523429004E545020554E53594E434E
:10067000524F4E495A4544004E54502054494D451E
:10068000204F5554285345525645523129004E5457
:10069000502054494D45204F5554285345525645F6
:1006A000523229004E54502054494D45204F555444
:1006B000285345525645523329004E545020544930
:1006C0004D45204F55542853455256455234290024
:1006D0004E545020494C4C4547414C2053455256AE
:1006E0004552205245504C59004E5450204C4541E3
:1006F00050205345434F4E442041444A55535400E3
:1007000054494D4520494C4C4547414C00475053B6
:10071000204E4D454120464F524D415420455252A6
:100720004F52004E4D454120434845434B53554D94
:10073000204552524F520054494D452044415441A6
:100740002052454345495645204552524F52005587
:100750004E53594E432054494D455550004D544B2E
:100760003333333920494E495449414C2045525284
:100770004F52004A044B0454046304730488049FDA
:1007800004B904D504F0040B0518053005430555DC
:1007900005680582059405A505B605CC05E205F8B2
:1007A000050E0624063A065006660678068E06A44E
:1007B00006BA06D006E90600070D07230737074FDC
:1007C000075D076E772E636769006E732E63676936
:1007D000006E622E63676900636C2E636769006553
:1007E0006C2E6367690073642E63676900666176C7
:1007F00069636F00C307CA07D107D807DF07E60799
:10080000ED07464958204E4554574F524B2053450B
:100810005454494E470054494D452053455256457E
:10082000522053455454494E470054494D45205099
:10083000524F564944452053455454494E4700545D
:10084000494D452042524F414443415354204C4F5F
:1008500047004556454E54204C4F4700535953547A
:10086000454D20494E464F4D4154494F4E000208D8
:1008700016082A083F0852085C084E54502041448C
:100880004A5553544D454E54204D4F4445004E5407
:10089000502041444A2E204E4D45414F5554204D45
:1008A0004F44450042524F41444341535420414438
:1008B0004A5553544D454E54204D4F4445004252E5
:1008C0004F4144434153542041444A2E204E4D450C
:1008D000414F5554204D4F444500554E49564552C1
:1008E00053414C204750532041444A5553544D45A1
:1008F0004E54204D4F4445004D544B333333392033
:100900004750532041444A5553544D454E54204D71
:100910004F4445007A088E08A408BE08DA08F80893
:100920004E4F20414C41524D2854494D452053597A
:100930004E43524F4E495A4544290054494D452093
:10094000414C41524D284E4F542053594E43524F23
:100950004E495A4544290054494D4520554E41447D
:100960004A55535445440054494D45204F50455233
:100970004154494F4E2054494D454F55540055540C
:1009800043204D4F44452856414C49442900555475
:1009900043205050534F5554204D4F444528564105
:1009A0004C494429004750532054494D45204E4F4F
:1009B0002056414C4944004E4F2054494D45204952
:1009C0004E5055540020093B09570967097E098E8E
:1009D00009A509B70920485454502F003C2F413E27
:1009E0003C42523E003F223E003C42523E3C4120AF
:1009F000485245463D222E2F004B44422D534E5423
:100A0000502D5345525645523C2F423E3C42523E99
:100A1000004243004954424C00223E3C42523E3C7C
:100A200042523E494E54455256414C285365632E1E
:100A30002030206F72203E36353533342049676EC2
:100A40006F7265293C42523E3C494E5055542054E9
:100A50005950453D225445585422204E414D453D64
:100A6000224954424C222053495A453D22382220E3
:100A70004D41584C454E4754483D22352220564161
:100A80004C55453D22003530223E3C2F54483E3CDB
:100A900054482057494454483D22313530223E5471
:100AA000494D453C2F54483E3C54482057494454F6
:100AB000483D22313530223E414D4F554E543C2F5A
:100AC00054483E3C54482057494454483D2231350F
:100AD00030223E4E4F54453C2F54483E3C2F5452FA
:100AE0003E003C2F54443E3C2F54523E003C2F5479
:100AF000443E3C54443E26656D73703B003C2F548D
:100B0000443E3C54443E42432041444A55535400E1
:100B10006D732E007365632C006F766572203968E3
:100B20006F7572732E0044495354524942555449CB
:100B30004F4E002D2D2D2D2D3C2F54443E3C544422
:100B40003E003C2F54443E3C54443E0026656D73A9
:100B5000703B003C2F54443E3C54443E003C5452B5
:100B600020414C49474E3D2243454E544552223E7A
:100B70003C54443E0045525252535400434C5200A0
:100B800050473D3100313530223E54494D453C2FD0
:100B900054483E3C54482057494454483D2235303F
:100BA00030223E4556454E543C2F54483E3C2F542F
:100BB000523E003C2F54443E3C2F54523E0026658A
:100BC0006D73703B3C2F54443E3C54443E26656D4F
:100BD00073703B00285345525645523A002C41440D
:100BE00044523A002C4F55543A0028494E3A002CB2
:100BF00044415441313A002C434F44453A00285473
:100C00005950453A002C4E4558543A002C434E5406
:100C10003A00285354533A003C2F54443E3C544429
:100C20003E002D2D2D2D2F2D2D2F2D2D202D2D3A0C
:100C30002D2D3A2D2D003C545220414C49474E3D1C
:100C40002243454E544552223E3C54443E003C2FE4
:100C50005441424C453E3C42523E004F5045524169
:100C600054494E472054494D45004D494E2E0048A9
:100C70004F555220004649524D5741524520564546
:100C80005253494F4E00454E4332384A3630205277
:100C900045564953494F4E004D414320414444522B
:100CA0004553530054494D45205354415455530026
:100CB0004F5045524154494F4E204D4F44450044FA
:100CC000484350204D4F4445005553452044484328
:100CD00050205345525645520046495820414444FD
:100CE00052455353004E455442494F53204E414DB7
:100CF0004500444E532053455256455200474154F7
:100D0000455741592041444452455353005355429D
:100D10004E4554204D41534B0049502041444452CC
:100D200045535300323030223E4954454D3C2F54F8
:100D3000483E3C54482057494454483D22333030C3
:100D4000223E56414C55453C2F54483E3C2F545270
:100D50003E003C2F54443E3C2F54523E003C2F5406
:100D6000443E3C54443E003C545220414C49474E82
:100D70003D2243454E544552223E3C54443E0022BF
:100D80002056414C55453D220022204D41584C45AE
:100D90004E4754483D2200222053495A453D2200E7
:100DA0003C42523E3C494E50555420545950453DCA
:100DB000225445585422204E414D453D2200223EAA
:100DC0003C42523E003C2F43454E5445523E3C2F40
:100DD000424F44593E3C2F48544D4C3E003C4252F9
:100DE0003E436F70797269676874202863294A7579
:100DF0006E6E6963686920546F6D617275003C4264
:100E0000523E3C4120485245463D222E2F223E4D27
:100E100041494E204D454E553C2F413E3C42523EAD
:100E2000003C42523E003F455252525354223E45EE
:100E300052524F52204F46463C2F413E3C42523E7A
:100E40000026656D73703B3C4120485245463D226B
:100E5000003F434C52223E4C4F4720434C454152A9
:100E60003C2F413E003F50473D31223E5B325D3CCE
:100E70002F413E26656D73703B3C412048524546EC
:100E80003D22003F50473D30223E5B315D3C2F41CB
:100E90003E26656D73703B3C4120485245463D22DD
:100EA000003C2F5441424C453E3C42523E3C412086
:100EB000485245463D22003C2F423E3C42523E3C79
:100EC00042523E3C5441424C4520424F52444552CE
:100ED0003D2231223E3C54523E3C54482057494426
:100EE00054483D220022204D4554484F443D22475E
:100EF0004554003C2F423E3C42523E3C464F524DF0
:100F000020414354494F4E3D220053554E004D4F12
:100F10004E0054554500574544005448550046522C
:100F2000490053415400414955545550564E4B4485
:100F3000422D534E54502053455256455200454E73
:100F40004332384A3630205245563A00494E4954C9
:100F500049414C495A494E472E2E2E00494E49547C
:100F600049414C495A4544004B4559494E50555406
:100F700020494C4C4547414C004C43442044495384
:100F800041424C45442E0043414C2052454D3A00CD
:100F9000444843502044495341424C45440044484E
:100FA000435020454E41424C4544004E545020523F
:100FB0005820454E41424C4544004E545020525812
:100FC0002044495341424C45440042524F4144431E
:100FD000415354204C4F47004F5045524154494EC5
:100FE000472054494D4500475053204D4F4445201C
:100FF00052454144590000454E4332384A3630206C
:10100000494E4954455252004D544B3333333920E5
:10101000494E495449414C002E0F3E0F4C0F5C0F76
:10102000680F790F870F900F9E0FAB0FBA0FCA0F83
:10103000D80FE70FF60FF70F081056657273696F38
:101040006E00504C4541534520434845434B204B8F
:10105000455900504C454153452052455345540095
:101060004D41433A0044484350434E543A004E42A7
:10107000432052454D3A005741495420666F722033
:1010800054494D452052580000434845434B2043A6
:1010900049524355495400504C454153452057410E
:1010A0004954003A1042105310601065106E1077CA
:1010B0001088108910971045585049524544200017
:1010C00020524542494E44200052454E4557414C1E
:1010D0002000494E46494E49545900B710C010C926
:1010E00010D2104A5354004B5354004343540055FC
:1010F0005443005053540048445400E310E710EBAD
:1011000010EF10F310F710202020202020202020A6
:101110002020202020202000504F574552204F4EA5
:101120000045585445524E414C20524553455400B9
:1011300042524F574E204F5554205245534554006C
:101140005741544348444F47205245534554004566
:101150004E4320524356204552524F520041525066
:10116000205245512054494D454F55540049434D57
:10117000502053554D204552524F52005443502059
:1011800053554D204552524F52005544502053550F
:101190004D204552524F520049434D50204D45532A
:1011A000534147452052435600444843502052453E
:1011B0004345495645204E414B0044484350205238
:1011C000454E4557414C0044484350205245424902
:1011D0004E4400444843502045585049524544002D
:1011E0004448435020504354204552524F52004EE1
:1011F000425420524356204552524F52004E4254C0
:1012000020464F524D4154204552524F52004E42BB
:1012100054205041434B4554204552524F52004EAA
:1012200042542054494D454F5554284E6F312900A2
:101230004E42542054494D454F5554284E6F322943
:10124000004E42542054494D454F5554284E6F335B
:1012500029004E42542054494D454F5554284E6F55
:10126000342900444E532054494D454F5554284E7F
:101270006F312900444E532054494D454F55542851
:101280004E6F322900444E532054494D454F55541A
:10129000284E6F332900444E532054494D454F5535
:1012A00054284E6F3429004E545020554E53594EF9
:1012B00043524F4E495A45004E54502054494D45D3
:1012C0004F5554284E6F3129004E54502054494DEB
:1012D000454F5554284E6F3229004E5450205449E2
:1012E0004D454F5554284E6F3329004E54502054CD
:1012F000494D454F5554284E6F3429004E545020C7
:10130000494C4C4547414C205245502E004E5450BC
:10131000204C4541502041444A5553540054494DB6
:101320004520494C4C4547414C0047505320464FBF
:10133000524D4154204552524F52004E4D4541208E
:1013400043484B53554D204552522E0054494D456C
:1013500020444154412052435645525200554E5369
:10136000594E432054494D455550004D544B33334D
:10137000333920494E495445525200071118112162
:1013800011301140114F115D116D117C118A1198AE
:1013900011A911BA11C711D311E011EF11FD110EEE
:1013A000121F1230124112521263127412851296D9
:1013B00012A712B812C912DA12EB12FC120D131D89
:1013C000132A133B134C135D136B132D2D2F2D2D4F
:1013D000202D2D3A2D2D3A2D2D00C0F9A4B0999233
:1013E00082F88090FF88FBC187C28CE3AB484F55E1
:1013F000522020204D494E2E002A2A3A2A2A3A2AE3
:101400002A002D2D3A2D2D3A2D2D005A44410052FF
:101410004D4300504D544B3030312C3331342C334C
:101420000024504D544B3331342C302C312C302C83
:10143000302C302C302C302C302C302C302C302CCC
:10144000302C302C302C302C302C302C312C302ABD
:1014500032380D0A000209000509000509534D54F0
:1014600057544653004F464654494D45004F4E543D
:10147000494D450020203A20203A2020004F464682
:1014800020574441593A004F4E2020574441593A81
:10149000002C4530300A002C4530320A002C4530F3
:1014A000320A002C4F4B0A0053594E43002C4F4B2D
:1014B0000A00434C4F47002C4F4B0A00434F5554F2
:1014C000002C4530310A002C4E470A002C4F4B0AA5
:1014D0000043415250002C4530310A002C4E470A3F
:1014E000002C4F4B0A0053415250004756455200C2
:1014F000474D4143002C4530310A004745434400E5
:101500004745564E004741525000474D4F44004713
:1015100053545300475544540047574454004649D8
:10152000582049502041444452455353004649589D
:10153000205355424E45544D41534B004649582087
:1015400044464C5420474154455741590046495858
:1015500020444E5320534552564552004448435070
:1015600020454E41424C45004854545020504F5263
:101570005428576562290041525020524551205449
:10158000494D454F55540042434153542041444432
:101590005245535300424341535420494E544552FF
:1015A00056414C00444953502054494D45205A4F10
:1015B0004E45004E5450205245512054494D454F00
:1015C00055540041444A5553542057494454480007
:1015D0004E545020534C4557200047505320424111
:1015E00055445241544500475053204D4F44554CAB
:1015F000452054595045004E4D45412053454E54C9
:10160000454E53450041444A5553542050505320B1
:1016100045444745004E4D45412041444A555354A9
:101620002053454300475053204E4F4441544120DE
:1016300054494D45520047505320554E53594E433F
:101640002054494D4552004E5450204D4158504F62
:101650004C4C28325E6E290037534547204449538D
:101660005020454E41424C450037534547204449A0
:1016700053502054494D4552004D4143204144446C
:10168000524553530041444A555354204D4F44450D
:10169000005155495420544F204D41494E001E15CC
:1016A0002D153C154D155C15681577158715951585
:1016B000A415B315C315D015DA15E715F7150516DA
:1016C00015162516361647165816691679168516F4
:1016D000911644495341424C4500454E41424C45C8
:1016E00000D216DA164A5354285554432B393A304F
:1016F0003029004B5354285554432B393A30302964
:1017000000434354285554432B383A303029005570
:1017100054432855544320303A3030290050535414
:10172000285554432D383A30302900484454285520
:1017300054432D393A30302900E516F31601170FBE
:10174000171D172B17907E0000907E000080700000
:101750000000000000808FFFFF7081FFFF2031320A
:101760003030627073002032343030627073002089
:101770003438303062707300203936303062707324
:1017800000313932303062707300333834303062B7
:101790007073003537363030627073005D1766172E
:1017A0006F17781781178A1793174D544B333333BC
:1017B00039204D4F44554C4500554E4956455253DE
:1017C000414C2047505300AA17B917242A2A524DDA
:1017D0004328554E49562E2900242A2A5A44412886
:1017E000554E49562E2900CB17D91746414C4C204F
:1017F000454447450052495345204544474500EB81
:1018000017F5172B30205345434F4E44002B312002
:101810005345434F4E440003180D18444953414269
:101820004C4500454E41424C45001B1823184E5470
:1018300050205245512E41444A555354004E545065
:10184000205245512E4E4D4541204F5554004E5487
:1018500050205243562E41444A555354004E545042
:10186000205243562E4E4D4541204F55540047506F
:1018700053204D4F44554C45002E183D184E185DD1
:10188000186E18504F4C4C3A2020284D4158313496
:101890002900544F55543A202020202073656300BE
:1018A000544F55543A202020202073656300574937
:1018B0004454483A20202020206D73656300574926
:1018C0004454483A20202020207365630054494D39
:1018D000454F55543A20202020206D7300494E5426
:1018E000455256414C3A2020202020730054494D47
:1018F000454F55543A20202020206D7300504F5200
:10190000543A2020202020002D2D204D454E5520DA
:101910002D2D000011241FBECFEFD0E1DEBFCDBFC3
:1019200012E0A0E0B1E0ECE2FAED02C005900D9209
:10193000AA3FB107D9F71CE0AAEFB2E001C01D929F
:10194000AA39B107E1F70E94FB110C94146D0C94B5
:10195000000080919C01882359F48091450A909160
:10196000460A9093760C8093750C81E080939C01DD
:101970000895A0E2B0E0EFEBFCE00C94A06B0E94B5
:10198000861E82E00E94A44E01C0A895F999FDCF61
:101990008AE390E063E070E00E940F6D01C0A895BB
:1019A000F999FDCF86E090E060ED77E00E940F6D41
:1019B00001C0A895F999FDCF8EE090E060E570E058
:1019C0000E940F6D01C0A895F999FDCF8CE090E0C1
:1019D0006AE070E80E940F6D01C0A895F999FDCFEB
:1019E00080E290E046E651E068EA70EC0E94076D04
:1019F00001C0A895F999FDCF84E290E040E05FEF47
:101A00006FEF7FEF0E94076D01C0A895F999FDCF98
:101A100088E290E041E051E068EA70EC0E94076DD6
:101A200001C0A895F999FDCF8CE290E041E051E02A
:101A300068EA70EC0E94076DCE01019668E071E0E3
:101A40000E94026C01C0A895F999FDCFCE010196C4
:101A500060E170E040E150E00E94EF6C01C0A895A9
:101A6000F999FDCF8E010F5F1F4FC80168E171E04A
:101A70000E94026CC80160E470E040E250E00E9405
:101A8000EF6C01C0A895F999FDCF8E010F5F1F4F34
:101A9000C8016DE271E00E94026CC80160E670E06E
:101AA00040E250E00E94EF6C01C0A895F999FDCF8B
:101AB0008E010F5F1F4FC80162E471E00E94026C4B
:101AC000C80160E870E040E250E00E94EF6C01C0A5
:101AD000A895F999FDCF8E010F5F1F4FC80167E5EB
:101AE00071E00E94026CC80160EA70E040E250E0E0
:101AF0000E94EF6C01C0A895F999FDCF80EC90E0B1
:101B00004FEF51E068EA70EC0E94076D01C0A895A4
:101B1000F999FDCF84EC90E060E070E00E940F6DD9
:101B200001C0A895F999FDCF86EC90E060ED77E0D3
:101B30000E940F6D01C0A895F999FDCF88EC90E047
:101B400068E873E10E940F6D01C0A895F999FDCF77
:101B50008AEC90E060E07AE00E940F6D01C0A895E9
:101B6000F999FDCF8CEC90E060E070E00E940F6D81
:101B700001C0A895F999FDCF8EEC90E060E870E087
:101B80000E940F6D01C0A895F999FDCF80ED90E0FE
:101B900060E070E00E940F6D01C0A895F999FDCF3B
:101BA00082ED90E060E070E00E940F6D01C0A895AA
:101BB000F999FDCF84ED90E06CE370E00E940F6D29
:101BC00001C0A895F999FDCF86ED90E064E873E037
:101BD0000E940F6D01C0A895F999FDCF80EE90E0AD
:101BE00040E050E060E070E00E94076D01C0A89501
:101BF000F999FDCF84EE90E040E050E060E070E0C5
:101C00000E94076D01C0A895F999FDCF80EF90E083
:101C100060E070E00E940F6D01C0A895F999FDCFBA
:101C20008EE390E065EA73EC0E940F6DA096E4E00D
:101C30000C94BC6B01C0A895F999FDCF80E095E0AC
:101C400060E070E046E050E00E949F6C80910005EB
:101C50008F3F41F480E095E062E071E046E050E0C3
:101C60000E94E56B83B180958F70873069F40E9484
:101C7000B90C0E94861E83E00E94A44E82E00E945E
:101C8000974EA895FECFA895F999FDCF8EE390E0E9
:101C90000E94B56C855A934C11F00E94B90C80EFEC
:101CA00090E00E94B56C80937E0C80917E0C843015
:101CB00029F4119A87E080939D0124C0109A209105
:101CC0003F0A3091400AC90181609093400A809395
:101CD0003F0A80917E0C80FF0EC05A9A529A216072
:101CE00030623093400A20933F0A81E090E0909365
:101CF000500A80934F0A80917E0C81FF03C0129A94
:101D000001C0A895F999FDCF86E090E00E94B56CDE
:101D1000909305018093040101978E5F9F4F40F0DF
:101D200080ED97E0909305018093040101C0A89590
:101D3000F999FDCF8EE090E00E94B56C9093B905C3
:101D40008093B80501978E5F9F4F40F080E590E04B
:101D50009093B9058093B80501C0A895F999FDCF76
:101D60008CE090E00E94B56C9C019F779093AC084A
:101D70008093AB08C90101978E5F9F4F50F084E1BB
:101D80008093AE088CE390E09093AC088093AB080E
:101D90000DC037FF15C08091510A9091520A0197EA
:101DA00011F084E101C085E18093AE0880913F0A83
:101DB0009091400A98609093400A80933F0A02C035
:101DC0001092AE088091AE08882309F040C080E2EE
:101DD00090E046E651E068EA70EC0E94382060939B
:101DE0007F0570938005809381059093820584E23E
:101DF00090E040E05FEF6FEF7FEF0E94382060934C
:101E0000830570938405809385059093860588E209
:101E100090E041E051E068EA70EC0E943820609365
:101E20008705709388058093890590938A058CE2D5
:101E300090E041E051E068EA70EC0E943820609345
:101E4000370A7093380A8093390A90933A0A80E1EE
:101E500090E067E27AE048E051E00E9415208AE3D2
:101E600090E00E94B56C80931C018C3118F085EADB
:101E700080931C0180ED90E00E94B56C492F809307
:101E80003E0A823010F010923E0A80917E0C84301F
:101E900081F580913E0A90E0059621E030E002C095
:101EA000220F331F8A95E2F780913F0A9091400AF2
:101EB000822B932B9093400A80933F0A40933D0AD4
:101EC000423010F010923D0A80913D0A90E0029657
:101ED00021E030E002C0220F331F8A95E2F78091A3
:101EE0003F0A9091400A822B932B9093400A809353
:101EF0003F0A84ED90E00E94B56C9C0101978E5FD3
:101F00009F4F10F02CE330E03093440A2093430AB3
:101F100086ED90E00E94B56C9C0101978E5F9F4F0B
:101F200010F024E833E03093460A2093450A82ED0E
:101F300090E00E94B56C9C018FEF2F3F380779F439
:101F400010924A0A1092490A81E090E090934A0167
:101F50008093490110924E0A10924D0A18C0C9018F
:101F60008170907090934A0A8093490A832F992731
:101F70008170907090934A0180934901232F3327F9
:101F800026952170307030934E0A20934D0A80E4DC
:101F900090E066EC77E048E151E00E94F21F80E6B5
:101FA00090E066EE77E04DE251E00E94F21F80E89B
:101FB00090E066E078E042E451E00E94F21F80EA9F
:101FC00090E066E278E047E551E00E94F21F80EC85
:101FD00090E04FEF51E068EA70EC0E943820609387
:101FE0004C0870934D0880934E0890934F0801C0A1
:101FF000A895F999FDCF84EC90E00E94B56C909380
:102000006D0880936C088F5F9F4F21F410926D08CC
:1020100010926C0880916C0890916D08892B59F092
:1020200080913F0A9091400A82609093400A809389
:102030003F0A01C0A895F999FDCF86EC90E00E9477
:10204000B56C90936B0880936A0801978E5F9F4FE1
:1020500040F080ED97E090936B0880936A0801C090
:10206000A895F999FDCF88EC90E00E94B56C90930B
:102070007208809371088F5F9F4F41F488E893E165
:10208000909372088093710801C0A895F999FDCFCB
:102090008AEC90E00E94B56C292F9F3068F481E0B3
:1020A00090E002C0880F991F2A95E2F790939A0159
:1020B0008093990101C0A895F999FDCF8EEC90E02D
:1020C0000E94B56C4FEF8F3F940711F480E890E0C9
:1020D000909376088093750801C0A895F999FDCF73
:1020E0008CEC90E00E94B56C8093580A8F3F21F4ED
:1020F0001092580A01C0A895F999FDCF8091580A0D
:10210000E82FF0E0EE0FFF1FEE0FFF1FEB5BF84E26
:1021100085919591A591B4918093950190939601A5
:10212000A0939701B093980101C0A895F999FDCFAC
:1021300080EE90E00E94AF6C6F3F2FEF72072FEFA1
:1021400082072FEF920721F460E070E080E090E0DA
:102150006093610A7093620A8093630A9093640AA1
:1021600001C0A895F999FDCF84EE90E00E94AF6C74
:102170006F3F4FEF74074FEF84074FEF940721F441
:1021800060E070E080E090E06093650A7093660A1A
:102190008093670A9093680A10924C0A10924B0A37
:1021A0008091490A90914A0A8130910531F49093C7
:1021B0004C0A80934B0A01C0A895F999FDCF88E09D
:1021C00090E00E94AF6C60937708709378088093DA
:1021D000790890937A0808951F93CF93DF9310E5C1
:1021E0001CBD0E94D34D80E18CBD0E94981E0E94B0
:1021F0001A0E1CBD80917E0C843031F080914F0A04
:102200009091500A019709F580911C01E82FF0E0A8
:10221000EE0FFF1FEC57FF4F859194919093C500EF
:102220008093C40082E08093C00086E08093C20067
:102230008091C60080914F0A9091500A019711F445
:1022400088E001C088E98093C10080914F0A909195
:10225000500A892B69F48091490190914A010197B4
:1022600011F483E001C082E08093690081E08DBBBE
:102270005E9A80E190E00E94F21E0E945719882326
:1022800081F484E162EA7AE00E9486180E94861E48
:102290008FE00E94A44E88E00E94974E179AA8955E
:1022A000FECF0E942D1C80E00E94A44E80E00E9480
:1022B000974E88E061E04CE750E00E94241E0E94A7
:1022C000F91EEC0107C0A89580917E0C843011F4B2
:1022D0000E944D540E94F91E8C1B9D0B845C9940FA
:1022E00090F30E94861E80917E0C843021F58091AF
:1022F0003D0A813039F48DE00E94A44E86E00E94B0
:10230000974E19C08823B9F480E10E94A44E89E059
:102310000E94974E0E947253853269F487E20E94B0
:102320006C52179A8091410A9091420A906890935A
:10233000420A8093410ADF91CF911F910895EF9255
:10234000FF920F931F93E0906C08F0906D0800E0EF
:1023500010E083E891E06DE471E00E94EB40E61A42
:10236000F70A080B190BB701C8011F910F91FF90D5
:10237000EF900895EF92FF920F931F93E0906E08F5
:10238000F0906F080027F7FC0095102F81E791E08F
:102390006DE471E00E94EB40E61AF70A080B190B96
:1023A000B701C8011F910F91FF90EF9008950F930F
:1023B0001F938C010E94CD3F005110406F717070CF
:1023C000060F171F10936F0800936E080C3311054A
:1023D00034F48CE390E090936F0880936E08A1E74B
:1023E000B1E0EDE4F1E082E101900D928150E1F77E
:1023F0001F910F910895A0E1B0E0E1E0F2E10C94AB
:10240000926BF89489E88093640080E885BF85BF6B
:1024100080BF12B820E125B988B98BE08BB99FEF56
:1024200091B980EB84B997B98AEC8AB901E010E0E0
:1024300010934801009347012CBD81E08DBD80E5DC
:102440008CBD85EA90E09093C5008093C40092E033
:102450009093C00086E08093C20016BC94BD83E0D8
:1024600085BD27EC27BD90936E001092B20090932B
:10247000B00084E08093B1002093B300909370008B
:102480001CBA1DBA84B780FF04C081E00E946C5260
:1024900011C081FF02C082E007C082FF02C083E05A
:1024A00003C083FF07C084E00E946C521093520A5D
:1024B0000093510A14BE2CE088E190E00FB6F89426
:1024C000A895809360000FBE2093600078940E94CE
:1024D000EC101092520A1092510A0E94F91E988B29
:1024E0008F87A1E06A2E712CF5E08F2E912C8C0E37
:1024F0009D1EE6E04E2E512C4C0E5D1EA8950E94AE
:10250000BE25823019F40E94252409C0833019F4B5
:102510000E948D2A04C0843041F50E940A28082FA9
:102520000E94E019002309F180917E0C8E7FD1F486
:10253000063091F48091590A8823A1F0A1E7B1E017
:10254000EDE4F1E082E101900D928150E1F710920B
:10255000240A1092590A06C00B3121F480E490E05D
:102560000E94D711802F0E946C528091AE08882360
:1025700029F41092B0081092AF0824C0843181F47D
:102580007092B0086092AF08A9E0B1E0EDE4F1E02C
:1025900082E101900D928150E1F70E94DA2B12C086
:1025A000853181F47092B0086092AF08A9E0B1E083
:1025B000EDE4F1E082E101900D928150E1F786E1D6
:1025C0000E94B82C80917E0C843011F40E944D54EE
:1025D000F89420906F0C3090700C1092700C109248
:1025E0006F0C2091710C3091720C3E872D871092E8
:1025F000720C1092710C789431E02316310409F0BA
:102600008FC2F89480916B0C90916C0CA0916D0C22
:10261000B0916E0C89839A83AB83BC837894CE018E
:1026200001960E944A21009729F480EC80930701CB
:1026300081E0B1C0AFE5B1E0FC0182E101900D9213
:102640008150E1F780910701803461F580917C0C25
:102650008823F9F48091630190916401892BC9F476
:102660008091610190916201892B99F480915F01C1
:1026700090916001892B69F489819A81AB81BC8139
:102680000197A109B10989839A83AB83BC8382E056
:1026900043C080917C0C823009F055C081E080936A
:1026A0007C0C51C0803809F04EC080917C0C88238E
:1026B00009F049C08091630190916401479709F046
:1026C00042C08091610190916201CB97E1F58091C8
:1026D0005F0190916001CB97B1F589819A81AB81BF
:1026E000BC810196A11DB11D89839A83AB83BC83F4
:1026F00080916B0C90916C0CA0916D0CB0916E0C54
:102700000196A11DB11D80936B0C90936C0CA0934E
:102710006D0CB0936E0C81E080937C0CCE01019621
:102720000E944A21AFE5B1E0FC0122E101900D9247
:102730002150E1F7892B39F480EC80930701109246
:10274000720C1092710C89819A81AB81BC812091AD
:102750009501309196014091970150919801820F17
:10276000931FA41FB51F89839A83AB83BC83CE01BB
:1027700001960E944A21ADE4B1E0FC0182E10190A2
:102780000D928150E1F780917C0C813039F41092E8
:10279000070110927C0C80939D010AC080917C0CF3
:1027A000823031F48CE390E090934E0180934D01A0
:1027B00080914F0A9091500A019709F080C0F894D7
:1027C0000091690C10916A0C789480916301B401B6
:1027D0000E943E3E84E291E0B20142E050E00E945D
:1027E000906C80916101B4010E943E3E86E291E0CE
:1027F000B20142E050E00E94906C80915F01B40110
:102800000E943E3E88E291E0B20142E050E00E9428
:10281000906CC801B4010E945A3E8BE291E0BE0167
:10282000695F7F4F43E050E00E94906C80915A0AAC
:1028300090915B0A019711F086E501C081E48093D5
:102840002F0180916501B4010E943E3E87E391E033
:10285000B20142E050E00E94906C809167018F5F6E
:10286000B4010E943E3E89E391E0B20142E050E0B3
:102870000E94906C8091690190916A018436910563
:1028800014F084569040B4010E945A3E8BE391E0CC
:10289000BE01685F7F4F42E050E00E94906C8DE186
:1028A00091E0B4010E94635382E491E0B40142E0FC
:1028B00050E00E94906C8DE191E00E948E200E9479
:1028C000A3210E9403340E94C12D80916C08909135
:1028D0006D08892B61F180915A0A90915B0A0197EA
:1028E000E1F40E949F115B016C0116161706180691
:1028F00019064CF10E940339882311F00E946C5292
:10290000A3E8B1E0EDE4F1E082E101900D928150A5
:10291000E1F782E00E94175316C0A3E8B1E0EDE4AE
:10292000F1E082E101900D928150E1F709C0A3E846
:10293000B1E0EDE4F1E082E101900D928150E1F728
:10294000AA24BB24650180917E0C8823E9F4809140
:10295000590A8823C9F40E94BA117B018C0116160A
:102960001706180619069CF080917F059091800546
:10297000A0918105B09182050097A105B10539F0BC
:1029800081E08093590A03C0EE24FF24870140911F
:10299000490A50914A0A4130510509F05CC0209122
:1029A000610A222349F48091650A882329F450930F
:1029B0004C0A40934B0A53C0C3010090590102C016
:1029C000880F991F0A94E2F7482F282311F180916C
:1029D000620A90E0209151013091520182179307D1
:1029E000C1F48091630A90E020914F013091500131
:1029F0008217930771F48091640A90E020914D0151
:102A000030914E018217930721F470924C0A609224
:102A10004B0A8091650A482311F18091660A90E083
:102A2000209151013091520182179307C1F4809196
:102A3000670A90E020914F0130915001821793076F
:102A400071F48091680A90E020914D0130914E011F
:102A50008217930721F410924C0A10924B0A80912E
:102A6000570A8F5F8093570A8C33A9F41092570A44
:102A70008091530A9091540AA091550AB091560A38
:102A80000196A11DB11D8093530A9093540AA093FF
:102A9000550AB093560A80914B0A90914C0A0197BF
:102AA00029F48DE491E00E94DF4D02C00E94D34DD5
:102AB00080913B0A882319F40E94915031C08430E0
:102AC00019F40E946D4F2CC0853031F580917E0C39
:102AD000843049F080917E0C81FD05C08091590AB7
:102AE000882309F468C280E00E94904E80916C08AF
:102AF00090916D08892B61F080915A0A90915B0A40
:102B0000019731F481E0B601A5010E94234F08C06E
:102B100081E00E94904E04C0863011F40E94B14EB4
:102B20002D853E852130310509F04EC080917E0C07
:102B30008E7F61F510929D0110929C0180916E082C
:102B400090916F082091600A213019F4959587952E
:102B50000CC0223051F4880F991F209199013091B7
:102B60009A012817390708F4C9018034910514F433
:102B700080E490E00E94D711A1E7B1E0EDE4F1E03C
:102B800082E101900D928150E1F709C0823039F461
:102B900010929D0110929C0181E00E9417531092A7
:102BA000590A80914B0190914C01019769F4109260
:102BB0004C0110924B01A3E8B1E0EDE4F1E082E1B9
:102BC00001900D928150E1F78091240A8823D9F079
:102BD0000E945434082F8823E1F080518B3058F440
:102BE000A1E7B1E0EDE4F1E082E101900D928150C6
:102BF000E1F70E94C8371092240A1092590A802FD8
:102C00000E946C5206C01092230A1092260A10925B
:102C1000250A80917E0C8E7F81F40E946238082FF5
:102C2000882359F01092240A1092590A80E490E007
:102C30000E94D711802F0E946C5231E0231631047C
:102C4000F1F480919405882359F08091A505815075
:102C50008093A505882321F480E090E00E94CC2792
:102C60008091A605882359F08091B7058150809303
:102C7000B705882321F481E090E00E94CC27809161
:102C8000470A9091480A019711F40E946A511092E4
:102C9000480A1092470A0E94F91E2F853889821B24
:102CA000930B409708F4DCC00E94F91E988B8F8725
:102CB0000E947B1F0E948A1F482F882309F4D0C0DE
:102CC00017988091410A9091420A9F779093420A07
:102CD0008093410A00913B0A8091470190914801FD
:102CE000019709F07BC04E3059F40E94861E85E0A2
:102CF0000E94A44E10924801109247015F9A56C05C
:102D0000443181F480913C0A882309F077C00E9405
:102D1000FA5B10923C0A86E080931B0121E030E0D0
:102D200000E087C0413149F40F5F80911B0180179B
:102D300008F047C100913C0A44C1423149F48091F6
:102D40003C0A081719F400911B013BC1015039C11D
:102D50004331D9F480913C0A882339F487E0809389
:102D60003C0A86E180931B012CC0873039F487E14F
:102D700080933C0A86E280931B012CC010923C0A8F
:102D800086E080931B0100E01FC1463191F48091E1
:102D90005A0A90915B0A019789F50E9403398823AA
:102DA00011F00E946C5282E00E94175320E030E044
:102DB00040C0483199F480913C0A873031F40E9438
:102DC000565221E030E007E034C0873109F0FCC002
:102DD0000E94615221E030E007E12BC04F3071F4D6
:102DE0000E94981E10923C0A86E080931B0170920C
:102DF0004801609247015F9800E01EC020E030E08B
:102E00004031B9F480917E0C8E7F99F48091590AFB
:102E1000882379F480917F0590918005A0918105A8
:102E2000B09182050097A105B10519F081E080936A
:102E3000590A21303105A1F400933B0A80913C0AE4
:102E4000873029F4802F87500E94AD4F09C0873109
:102E500029F4802F87510E941E5002C00E946A519F
:102E600080919C01882321F080919C018130A1F404
:102E700070925B0A60925A0A80917E0C843029F429
:102E80001092070181E080930801159A8091410A10
:102E90009091420A816023C080919C01833029F483
:102EA00084E080939C0185E208C080919C0182307F
:102EB00031F484E080939C0186E20E946C5210926F
:102EC0005B0A10925A0A80EC8093070180E180939C
:102ED000080115988091410A9091420A8E7F909343
:102EE000420A8093410A80916C0890916D08892B69
:102EF000A1F080915A0A90915B0A2091410A309189
:102F0000420A019719F4149A326002C014983D7F66
:102F10003093420A2093410A0AC014988091410AD2
:102F20009091420A9D7F9093420A8093410A80913A
:102F3000AE08882399F080917F0590918005A0913B
:102F40008105B09182050097A105B10539F0139A6A
:102F50008091410A9091420A916006C01398809135
:102F6000410A9091420A9E7F9093420A8093410ABF
:102F70000E9490192091410A3091420A813019F43F
:102F8000169A306402C016983F7B3093420A209311
:102F9000410A2091410A3091420A297F809107011C
:102FA00082958695877090E0822B932B9093420AAE
:102FB0008093410AA3CA80E0B801A7010E94234F71
:102FC00095CD21E030E035CF21E030E019CF8EBD46
:102FD0000DB407FEFDCF08952C988EBD0DB407FEED
:102FE000FDCF1EBC0DB407FEFDCF8EB52C9A089503
:102FF0002C988EBD0DB407FEFDCF1EBC0DB407FE90
:10300000FDCF8EB51EBC0DB407FEFDCF8EB52C9A3C
:1030100008952C98805C8EBD0DB407FEFDCF6EBD6B
:103020000DB407FEFDCF2C9A08950F931F93182F10
:103030000E94EC17082F812F8F5F0E94EC17982FAA
:10304000802F1F910F9108950F931F93182F0E94A7
:10305000F817082F812F8F5F0E94F817982F802F65
:103060001F910F9108950F931F93182F072F0E9400
:103070000918812F8F5F602F0E9409181F910F91EF
:1030800008952C9880588EBD0DB407FEFDCF6EBDFF
:103090000DB407FEFDCF2C9A08952C9880568EBD56
:1030A0000DB407FEFDCF6EBD0DB407FEFDCF2C9A0B
:1030B00008951F93182F8FE163E00E944D188FE150
:1030C000612F0E9441181F9108951F93182F82E0CD
:1030D0000E94591884E1612F0E94091882E161E081
:1030E0000E94091883E00E9459188AE00E94F8178C
:1030F00080FDFBCF82E00E94591882E160E00E94CF
:10310000091888E10E9424181F910895FF920F93D7
:103110001F93F82E8B0182E00E94591884E16F2DD5
:103120000E94091886E1B8010E94331883E00E94CA
:1031300059188AE00E94F81780FDFBCF1F910F916C
:10314000FF9008952C988AE38EBD0DB407FEFDCF45
:103150001EBC0DB407FEFDCF8EB52C9A08952C9899
:103160008AE38EBD0DB407FEFDCF1EBC0DB407FE75
:10317000FDCF9EB51EBC0DB407FEFDCF8EB52C9ABB
:1031800008952C988AE38EBD0DB407FEFDCF1EBCBA
:103190000DB407FEFDCF9EB51EBC0DB407FEFDCFDE
:1031A0008EB51EBC0DB407FEFDCF7EB51EBC0DB4A2
:1031B00007FEFDCF6EB52C9A0895FC012C988AE38A
:1031C0008EBD0DB407FEFDCF20E030E008C01EBC70
:1031D0000DB407FEFDCF8EB581932F5F3F4F2617AD
:1031E0003707A8F32C9A0895982F2C988AE78EBD5C
:1031F0000DB407FEFDCF9EBD0DB407FEFDCF2C9A8A
:103200000895282F2C988AE78EBD0DB407FEFDCFB8
:103210009EBD0DB407FEFDCF2EBD0DB407FEFDCF44
:103220002C9A0895282F2C988AE78EBD0DB407FE9E
:10323000FDCF9EBD0DB407FEFDCF2EBD0DB407FE24
:10324000FDCF7EBD0DB407FEFDCF6EBD0DB407FEF4
:10325000FDCF2C9A0895FC012C988AE78EBD0DB401
:1032600007FEFDCF20E030E008C080818EBD0DB4A8
:1032700007FEFDCF2F5F3F4F319626173707A8F384
:103280002C9ACB010895282F2C988AE78EBD0DB477
:1032900007FEFDCF80E090E005C02EBD0DB407FE17
:1032A000FDCF019686179707C0F32C9A08958FE1FA
:1032B00060E00E94091880E160E070E00E9433182D
:1032C00082E16FEF7FE10E9433188AE06FEF7FE1C8
:1032D0000E94331883E00E94591887E067E00E943B
:1032E000091887E00E94EC1780FDFBCF87E062E0C1
:1032F0000E944D188FE160E30E9441188FE10E9407
:10330000EC1785FDFBCF80E00E94591886E10E94F2
:10331000151820E08750984F09F421E0822F089576
:1033200081E00E946518969587959695879581709E
:1033300008958FE10E94EC178095881F8827881FC9
:103340000895EF92FF920F931F938C0180E00E94EB
:10335000591880E00E942418F82EE92E6091D304B9
:103360007091D4046A5F7F4F600F711F89E1683DDF
:10337000780710F0685D794180E00E9433188F2D46
:103380009E2D1F910F91FF90EF900895EF92FF9265
:103390000F931F938C0180E00E94591882E00E94D5
:1033A0002418F82EE92E0752164E82E0B8010E942A
:1033B00033188F2D9E2D1F910F91FF90EF90089540
:1033C0000F931F930091D5041091D6040150104023
:1033D00080E00E9459188EE160E40E944118B80113
:1033E00089E1083D180710F067ED79E18CE00E9453
:1033F00033181F910F9108951F93CF93DF9381E0AE
:103400000E94591889E10E94EC17182F80E00E9451
:1034100059188EE00E94EC17C82FD0E081E00E947E
:10342000591889E10E94EC17181779F78CE00E946F
:1034300015189F718C179D0720F49C012952364E58
:1034400009C0C817D90719F427ED39E105C09C0157
:10345000215030402C1B3D0BC901DF91CF911F91B2
:103460000895A7E0B0E0E7E3FAE10C949A6B8C01D1
:10347000E090D804F090D904E80EF91E82E0B8017B
:103480000E94331880E00E94F41884E0B8010E9482
:10349000331886E0B7010E9433188FE160E80E947C
:1034A00041188FE160E80E944D188CE16AE00E94AB
:1034B0004D188FE168E00E9441188091D704855033
:1034C000823008F068C000E010E08CE10E94EC1748
:1034D0008A7031F40F5F1F4F83E0083E1807A9F789
:1034E0008CE10E94EC1781FD05C083E0083E1807BF
:1034F00008F451C08FE168E00E944D1880E00E94FE
:1035000024185C0186E00E9424186C010894C11CF8
:10351000D11C80E0B6010E9433188E010F5F1F4F4F
:10352000C80167E070E00E94DD18EE24F02E012F44
:103530008CE10E94EC1781FF2AC08C8185FF27C097
:103540008FE160E80E9441188FE160E80E944D1809
:103550008CE16AE00E944D188FE168E00E944118FA
:103560008CE10E94EC178A70D9F38FE168E00E9429
:103570004D1880E0B6010E9433188F2D902F67E020
:1035800070E00E94DD18E39480E1E81689F680E09F
:10359000B5010E9433182796EAE00C94B66BA0E0C0
:1035A000B0E0E5EDFAE10C949B6BB82E282F392F93
:1035B0006901EE24FF24870111C00E94A218D82FB0
:1035C0000E94A218C82FCE01A0E0B0E0E80EF91EBC
:1035D0000A1F1B1F8EEF9FEFC80ED91E92E0C9165F
:1035E000D10458F7C701D8019C01AD01B0FE0BC052
:1035F0000E94A218D82FC0E09E0140E050E02E0D9E
:103600003F1D401F511F203080E0380781E04807F0
:1036100080E05807A0F0CA0140E050E0A0E0B0E030
:10362000280F391F4A1F5B1F203090E0390791E0B7
:10363000490790E0590718F0C90101969C01C9019A
:10364000CDB7DEB7E9E00C94B76B0F931F938B01F6
:103650000E94A119C8010E94CF1A9C0120953095A3
:10366000C9011F910F910895EF92FF920F931F933D
:103670008C017B0180E00E9459180752164E80E0B1
:10368000B8010E943318C7010E94CF1A9C012095EF
:103690003095C9011F910F91FF90EF900895A0E020
:1036A000B0E0E5E5FBE10C949C6B6C017B018A01C9
:1036B0004115510509F444C04130510551F40E94AF
:1036C000A119C7010E94C6190E94A2180E94F418ED
:1036D00037C080E00E945918C091D304D091D4041F
:1036E0002696CC0DDD1D89E1C83DD80710F0C85DD8
:1036F000D94180E1BE010E943318B8016150704089
:103700006C0F7D1F99E1683D790710F0685D794184
:1037100082E10E94331889ED99E1E80EF91E84E1F7
:10372000B7010E9433188FE160E10E944D188FE1CC
:1037300060E20E9441188FE10E94EC1785FDFBCFEB
:10374000CDB7DEB7E8E00C94B86B8FE164E00E947F
:103750004D188DE10E94EC1782FDFBCF8FE10E9496
:10376000EC1787FDFBCF8EE160E20E9441180895BF
:103770001F93182F83E00E94591885E1612F0E9442
:1037800009181F91089583E00E94591885E10E944D
:10379000EC170895FC012C988AE38EBD0DB407FE4A
:1037A000FDCF20E030E00AC01EBC0DB407FEFDCF07
:1037B0008EB581932F5F3F4F841719F02617370777
:1037C00098F310822C9AC90108950F931F93CF93F9
:1037D000DF938C01C0E0D0E003C00E94A2182196C4
:1037E000C017D107D0F3DF91CF911F910F910895AA
:1037F000CF93DF93EC010E94096CAC012C988AE70F
:103800008EBD0DB407FEFDCF20E030E00AC0FE0102
:10381000E20FF31FE491EEBD0DB407FEFDCF2F5F65
:103820003F4F2417350798F32C9ACA01DF91CF91A7
:1038300008958EE160E20E944D1880E190E00E94C0
:10384000F21E8DE10E94EC1783FDFBCF80FFF9CFC4
:103850008FE164E00E94411808951F938EE160E2B9
:103860000E944D1880E190E00E94F21E5E9880E177
:1038700090E00E94F21E5E9A80E190E00E94F21EAB
:103880001FEF2C981EBD0DB407FEFDCF2C9A80E1D2
:1038900090E00E94F21E8DE10E94EC1783FDF1CFB3
:1038A00080FFEFCF8FE160EC0E9409188EE160E8A5
:1038B0000E94091888E060E070E00E9433188CE0F4
:1038C00067ED79E10E9433188AE067ED79E10E94A3
:1038D000331884E068ED79E10E94331881E00E949A
:1038E000591888E161EA0E94091882E00E9459187B
:1038F00080E06DE00E94091881E060E00E940918F4
:1039000082E062E30E9409188AE06EEE75E00E9490
:10391000331886E062E17CE00E94331884E062E1C3
:103920000E94091883E060E40E94091889E06FE3AF
:103930000E94091883E00E94591885E160E00E9406
:10394000091884E0609100050E94091885E06091E3
:1039500001050E94091882E0609102050E94091881
:1039600083E0609103050E94091880E060910405DE
:103970000E94091881E0609105050E94091882E102
:103980000E94EC178F718093D70480E060E070E0B4
:103990000E94861880E160E071E00E94861884E150
:1039A00062E774E00E94861880E00E9459188FE157
:1039B00064E00E9409181F910895CF93DF93EC01F2
:1039C00081E00E94591889E10E94EC17882321F4B4
:1039D0000E94591880E044C080E00E94591860910C
:1039E000D5047091D60480E00E9433188091D504EC
:1039F0009091D6049093D4048093D3048DEC94E0FA
:103A000066E070E00E94DD188091CE048F71809393
:103A1000CE048091D0048F718093D0042091CD0486
:103A20003091CE043093D6042093D5048091CF04F6
:103A30009091D0048F5E954080F489E1283D38074D
:103A400060F420FD0AC08091D20487FD06C08091F9
:103A5000D10484FD02C087FD06C00E942D1C82E0B7
:103A6000DF91CF910895F89480916B0C90916C0C3C
:103A7000A0916D0CB0916E0C80935C0890935D08E2
:103A8000A0935E08B0935F088091690C90916A0CD6
:103A900090936508809364087894CE016EE070E09E
:103AA0000E94DD1881E0DCCF98B18F70907F892B68
:103AB00088B90895469898B18F70907F892B88B9FE
:103AC0000000449A83E090E00E94F21E449808951A
:103AD0001F93182F88B1912F92959F70807F982BFC
:103AE00098B9449A83E090E00E94F21E449888B10D
:103AF0001F70807F812B88B9449A83E090E00E94F8
:103B0000F21E44981F910895469A0E94681D0895D8
:103B100046980E94681D08951F93182F80914701B1
:103B200090914801892B39F081E090E00E94F21ECB
:103B3000812F0E94841D1F910895CF93DF93EC0184
:103B40008091470190914801892B21F406C021966C
:103B50000E948C1D88818823D1F7DF91CF91089531
:103B60008091470190914801892B39F081E090E0E4
:103B70000E94F21E80E10E94881D08951F93182F55
:103B80008091470190914801892B59F081E090E0A4
:103B90000E94F21E112311F48CE001C08EE00E94FD
:103BA000881D1F9108951F93282F809147019091A0
:103BB0004801892BC1F0662311F4122F0CC061302B
:103BC00019F4122F105C07C0623019F4122F1C5E1A
:103BD00002C0122F1C5A81E090E00E94F21E812F39
:103BE00080680E94881D1F9108950F931F93CF93A3
:103BF000DF93282F042F8091470190914801892B52
:103C000091F0822F0E94D31D10E0C02FDD27C7FD49
:103C1000D09504C080E20E948C1D1F5F812F90E030
:103C20008C179D07BCF3DF91CF911F910F910895E1
:103C3000682F8091470190914801892B21F080E005
:103C400040E10E94F51D0895CF93DF93282FEA01EC
:103C50008091470190914801892B59F0822F0E9451
:103C6000D31D03C00E948C1D2196FE0184918823E0
:103C7000C9F7DF91CF910895CF93DF93282FEA0101
:103C80008091470190914801892B31F0822F0E9449
:103C9000D31DCE010E949D1DDF91CF9108951F93EA
:103CA000282F142F8091470190914801892B51F0C2
:103CB000822F0E94D31D81E090E00E94F21E812F8E
:103CC0000E94841D1F9108950F931F93CF93DF933C
:103CD0008B01880F880F880F887380640E94881D6D
:103CE000C0E0D0E081E090E00E94F21EF801EC0F0D
:103CF000FD1FE4918E2F0E94841D2196C830D105AE
:103D000089F7DF91CF911F910F910895809147011D
:103D100090914801892B59F081E090E00E94F21EB9
:103D200081E00E94881D82E090E00E94011F0895BA
:103D30001F93CF93DF938091470190914801892B86
:103D400009F44CC088E290E00E94011F83E00E94C9
:103D50005A1D82E490E00E94F21E83E00E945A1DE8
:103D600082E090E00E94F21E83E00E945A1D81E0F2
:103D700090E00E94F21E82E00E945A1D82E090E0D4
:103D80000E94011F88E20E94881D81E090E00E944D
:103D9000F21E88E00E94881D81E090E00E94F21EE1
:103DA00081E00E94881D82E090E00E94011F86E071
:103DB0000E94881D81E090E00E94F21E8CE00E942B
:103DC000881DC2EDD0E010E0FE0165917491812F55
:103DD0000E94641E1F5F22961830B1F7DF91CF91C9
:103DE0001F91089528EC00002A95E9F70197D1F773
:103DF0000895F8942091FA023091FB027894C90159
:103E00000895AC01F8942091FA023091FB02789465
:103E100001C0A895F8948091FA029091FB027894E1
:103E2000821B930B84179507A0F30895DC01F89487
:103E30007894809147048823A1F0F894E091450498
:103E4000F0E0EB5BFC4F80818C93809145048F5FA9
:103E5000809345048091470481508093470478946F
:103E600081E00895A1E0B0E0E8E3FFE10C94A06BED
:103E70008E010F5F1F4F01C0A895C8010E94161F39
:103E80008130D1F32196E4E00C94BC6BA1E0B0E06A
:103E9000ECE4FFE10C94A26BCE0101960E94161F88
:103EA000882321F19091C8049F3740F01092CC04F0
:103EB0001092CB041092C80482E019C08981E92FC6
:103EC000F0E0E85BFB4F8083E92FEF5FE093C804ED
:103ED0008A3061F4F0E0E85BFB4F10821092C80476
:103EE0001092CC041092CB0481E001C080E02196B6
:103EF000E2E00C94BE6B9091000383B1ECEFF2E032
:103F0000E90FF11D80958F7080839F5F9370909370
:103F1000000308959091FD028091FC029823809106
:103F2000FE0298238091FF02982361F1983011F4EA
:103F300094E121C0943011F493E11DC0923011F44A
:103F400092E119C0913011F491E115C09C3011F447
:103F500098E111C0933011F49FE00DC0953011F439
:103F60009EE009C0993011F490E105C09A3011F03B
:103F700090E001C096E180917F0C981729F0909312
:103F80007F0C03C010927F0C90E0892F0895EF9270
:103F9000FF920F931F93CF93DF93F894E090FA0270
:103FA000F090FB0278948701A895F894C091FA02EA
:103FB000D091FB027894CE01801B910B409718F0B2
:103FC0000E947B1F8E010E948A1F882331F4CE1924
:103FD000DF09C051D74240F389E1CDB7DEB7E6E053
:103FE0000C94BA6B0F931F93CF93DF939C01EB015B
:103FF0008A0101C0A895F999FDCFCE01B9014FE121
:1040000050E00E949F6C1F8E8881992787FD9095B4
:104010000E94C96B892B21F4CE01B8010E94026C69
:10402000DF91CF911F910F9108950F931F93CF931D
:10403000DF939C01EB018A0101C0A895F999FDCF9E
:10404000CE01B9014FE050E00E949F6C1F8688812D
:10405000992787FD90950E94C96B892B21F4CE0189
:10406000B8010E94026CDF91CF911F910F910895CA
:10407000EF92FF920F931F93142F052FF62EE72E2A
:1040800001C0A895F999FDCF0E94AF6C9B01AC01CE
:104090002F3F8FEF38078FEF48078FEF580741F416
:1040A000212F302F4F2D5E2DC901DA019C01AD016A
:1040B000B901CA011F910F91FF90EF9008951F93CE
:1040C000CF93DF93EC010E94096C182F803414F514
:1040D0008091430390914403019711F4A895FECF7A
:1040E00081E090E0909344038093430381E093E068
:1040F000BE010E94026C809101038093C6001150A2
:104100001093420381E0809341038091C100806657
:104110008093C100DF91CF911F9108951F93BC013F
:10412000FC0101900020E9F731971E2F181B103475
:1041300008F58091430390914403019711F4A895E9
:10414000FECF81E090E0909344038093430381E0AD
:1041500093E00E947B6C809101038093C600115014
:104160001093420381E0809341038091C1008066F7
:104170008093C1001F9108951F93482F792F162F08
:10418000603444F58091430390914403019711F406
:10419000A895FECF81E090E0909344038093430381
:1041A00021E033E0E62FFF27E7FDF095C901642FFA
:1041B000AF010E943A6C809101038093C6001150B8
:1041C0001093420381E0809341038091C100806697
:1041D0008093C1001F9108951F1D1F1E1F1E1F1FCA
:1041E0001E1F1E1FCF93DF93EC012C964AE834D09C
:1041F0006627772736E4AEE6B1E0532F537009F017
:104200001197321729F078F56A0F7B1F3395F3CF9A
:104210004CE022D0E8EDF1E430E0C8953196313041
:1042200011F451110A94321720F4600D711D339569
:10423000F4CF402D439510D02150A8F0620F711D8E
:104240008827992748E108D015D04CE305D012D033
:104250002CE302D00FD00BC03A912A9124173105DC
:1042600040F00F900F906FEF7FEF8FEF9FEFDF9198
:10427000CF91089551E2AA1B08F4A40FA795979532
:104280008795779567955A95B9F7620F711D811DCE
:10429000911D0895CF93DF93FC01208131814281EC
:1042A0005381CC27DD2757FD3CC0C0E8DCE06CE340
:1042B0003CD00882198239D00A821B8268E135D04D
:1042C0000C821D82F9012C5F3F4F67E02ED00C86D7
:1042D0001D869F01A6E4EEE6F1E0BA2FB37009F067
:1042E00031972E173F0720F02E1B3F0BA395F3CFDE
:1042F000AA871B862E873F87E8EDF1E4AA27C89599
:104300003196A13011F4B1110A942015310520F035
:1043100020193109A395F3CFA887198623952E83F9
:104320003F83CE01DF91CF910895002470E2220FE8
:10433000331F441F551F001C061610F0061A239544
:104340007A95A9F70895CF93DF93E6E0F5E030E0A2
:104350002FEF8685813081F482859385A485B5858C
:104360000197A109B10982879387A487B587009730
:10437000A105B10519F429C0823041F52F3F29F478
:104380003F5F3F96383029F723C0822F90E0DC0151
:1043900024E0AA0FBB1F2A95E1F7A81BB90BAA5F5F
:1043A000BA4FEF018FE009900D928150E1F7108232
:1043B000118212821382148215821682178210864D
:1043C000118612861386148615861686232FD8CF5B
:1043D000DF91CF910895AB01BC01E6E0F5E020E06C
:1043E00030E080819181A281B38184179507A6076F
:1043F000B70769F4F90144E0EE0FFF1F4A95E1F7B2
:10440000E21BF30BEA5FFA4F168681E008952F5FF7
:104410003F4F3F962830310521F780E00895CF9235
:10442000DF92EF92FF920F931F936B017C018AE260
:1044300090E09093D9048093D80480E00E945918AA
:1044400082E06DEC7FE10E9433188FEF66E070E050
:104450000E94431900E015E0C80166E070E00E9488
:104460002B1986E098E00E94011981E090E00E94FB
:10447000011980E098E00E94011986E00E94F4187A
:1044800084E00E94F41881E090E00E940119C801C4
:1044900066E070E00E942B1960917F0570918005A5
:1044A00080918105909182050E94121980E066E05A
:1044B00070E00E944319C701B6010E9412198CECEA
:1044C0009FE10E94311A1F910F91FF90EF90DF90B2
:1044D000CF900895EF92FF920F931F93CF93DF93A6
:1044E0007B018C01622FE6E0F5E020E086858617EF
:1044F00059F480819181A281B3818E159F05A00717
:10450000B10711F4922F18C02F5F3F96283071F732
:104510006623C1F190917E05E4E1F5E020E0808121
:10452000823031F49F5F97702F5F3F962830B9F744
:1045300090937E05283031F18FE0989FF00111248F
:10454000EA5FFA4FEF012496DA0186E00D900992B6
:104550008150E1F7E082F1820283138380910001B0
:1045600090910101A0910201B0910301828793878C
:10457000A487B587662319F481E0868704C066871F
:1045800081E001C080E0CDB7DEB7E6E00C94BA6B05
:10459000ACE1B0E0EEECF2E20C94986BCE01019647
:1045A0006CE170E00E94DD188F8198850E944E407A
:1045B0004C016F85788989899A890E9452405B01F4
:1045C0006C01698D7A8D8B8D9C8D0E9452407B0190
:1045D0008C0189819A810E944E40019709F070C038
:1045E0008B819C810E944E408050984009F068C0A9
:1045F00080917F0590918005A0918105B091820501
:10460000E816F9060A071B0709F05AC0CE014396BF
:1046100060E075E046E050E00E94826C009709F08F
:104620004FC0AE14BF04C006D10611F482E049C0E9
:104630008E01075F1F4FC601B501A80121E00E944E
:104640006A2281E088169104D9F58CE190E090937C
:10465000D9048093D8048EE090E00E94C61981E0CE
:1046600090E00E94011980E098E00E94011986E024
:104670000E94F41884E00E94F41882E090E00E9406
:10468000011980E095E066E070E00E942B196091CE
:104690007F057091800580918105909182050E942F
:1046A0001219C80166E070E00E942B19CE010F9626
:1046B00064E070E00E942B1986E098E00E94CF230E
:1046C00080E06C96ECE00C94B46BEF92FF920F9349
:1046D0001F93E090E004F090E1040091E204109157
:1046E000E304209183053091840540918505509124
:1046F0008605DA01C9018E299F29A02BB12B8F5F76
:104700009F4FAF4FBF4F49F48AED94E06FEF70E0D9
:1047100046E050E00E94556C35C080917F05909135
:104720008005A0918105B09182058E259F25A02747
:10473000B12782239323A423B5230097A105B105B4
:1047400011F421E009C0E0908705F0908805009100
:10475000890510918A0522E0E6E0F5E08685813042
:1047600099F480819181A281B3818E159F05A00764
:10477000B10751F4AAEDB4E0349686E001900D92B1
:104780008150E1F720E005C03F9685E0EE37F8075D
:1047900029F7822F1F910F91FF90EF9008950F93AB
:1047A0001F938C018091D8049091D9040E96909318
:1047B000D9048093D80480E090E00E94C6198AED65
:1047C00094E066E070E00E942B1980E095E066E0DE
:1047D00070E00E942B19C8010E94011988ED99E12F
:1047E0000E94311A1F910F910895AEE0B0E0EBEFF7
:1047F000F3E20C94A16BCE0101960E94DD1C88238C
:10480000F1F0AAEDB4E0FE01379686E001900D923A
:104810008150E1F78D859E850E944E4028E08030D2
:10482000920711F411E00CC08650984031F40E94B8
:10483000C822182F0E94E01903C00E94E01910E05E
:10484000812F2E96E3E00C94BD6BA8E0B0E0EBE284
:10485000F4E20C94A06B82E290E00E94A119CE01D8
:10486000019668E070E00E94DD18898180938E05D2
:104870008A8180938F056091D8047091D90482E277
:1048800090E00E94251B892B81F08AE390E00E9432
:10489000A1190E94C11860939005709391058093AF
:1048A00092059093930587E057C080918E058830DC
:1048B00031F16D817E818F8198850E9452409B01EC
:1048C000AC0160939005709391058093920590934D
:1048D000930580918E05833019F40E942D1C3BC0F6
:1048E0008530C9F580918F058130A9F52093870522
:1048F000309388054093890550938A052CC04091D8
:10490000D8045091D90482E290E062E270E00E9403
:104910004F1B82E290E00E94C61980E00E94F418CA
:1049200080E00E94F41880E090E00E9401196091FC
:10493000D8047091D90482E290E00E94341B8C016B
:1049400084E290E00E94C619C8010E94011981E02A
:104950000E940A2501C08AE02896E4E00C94BC6B12
:10496000A0E0B0E0E6EBF4E20C949B6BB82EEB0118
:104970006A01E4EFF4E0EE24FF2487013081218115
:104980003296C901A0E0B0E0E80EF91E0A1F1B1F15
:1049900085E0E030F80791F781E0B81651F480E047
:1049A0000E945918C752D64E80E0BE010E943318AB
:1049B00003C0CE010E94A119C6010E94CF1A9C011A
:1049C00040E050E02E0D3F1D401F511F203080E081
:1049D000380781E0480780E05807A0F0CA0140E0AE
:1049E00050E0A0E0B0E0280F391F4A1F5B1F2030C5
:1049F00080E0380781E0480780E0580718F0C901D7
:104A000001969C0120953095C901CDB7DEB7E9E04C
:104A10000C94B76BACE1B0E0E0E1F5E20C94A06B74
:104A2000182F8091D8049091D90444969093D9047A
:104A30008093D8048EE090E00E94C61980E095E44F
:104A40000E9401198091D8049091D9040E94011903
:104A500080918B0590918C050E94011980E090E473
:104A60000E940119809106010E94F418812F0E9472
:104A7000F41880E090E00E94011960917F05709128
:104A8000800580918105909182050E9412196091A4
:104A9000E0047091E1048091E2049091E3040E94AB
:104AA00012198EE090E064E170E00E94341B8C01EA
:104AB00088E190E00E94C619C8010E9401190E9475
:104AC0006523882309F447C0DE011196E8EDF4E080
:104AD0009CE101900D929150E1F7823049F4609190
:104AE0008705709188058091890590918A0508C095
:104AF0006091E0047091E1048091E2049091E304FC
:104B00000E940F220E94E0190E94F91E8C01A895B4
:104B10000E94F523882311F00E94E0190E9465236A
:104B2000882311F420E00CC00E94F91E801B910B19
:104B300020910401309105018217930740F326E08C
:104B4000A8EDB4E0FE0131968CE101900D92815008
:104B5000E1F7222329F480E098E00E94CF2320E0AF
:104B600080918B0590918C05019690938C05809394
:104B70008B05822F6C96E4E00C94BC6BA4E1B0E052
:104B8000E4ECF5E20C949E6B0E94F523882309F473
:104B9000A0C0823011F485E09CC08EE090E064E11A
:104BA00070E00E94251B892B09F090C08EE090E0F8
:104BB0000E94A119CE01019664E170E00E94DD1807
:104BC00069897A898B899C890E9452407B018C017A
:104BD000209183053091840540918505509186058B
:104BE0008981682F70E0CB01807F907080349105BF
:104BF00009F06CC080917F0590918005A09181059E
:104C0000B0918205E816F9060A071B0799F02E29CC
:104C10003F29402B512B2F5F3F4F4F4F5F4F51F09C
:104C20008FEFE8168FEFF8068FEF08078FEF180762
:104C300009F04CC06F707070660F771F660F771F9A
:104C400060938D058B819C810E944E4020918D0543
:104C5000821B91099093D9048093D8046D857E8539
:104C60008F8598890E9452406093E0047093E1041C
:104C70008093E2049093E304E092E404F092E5046C
:104C80000093E6041093E70480918D05853120F0B0
:104C9000845190E00E94E51B6091E0047091E10472
:104CA0008091E2049091E3044AED54E020E00E94F8
:104CB0006A228A85813011F482E00BC0813111F4BF
:104CC00083E007C0863011F484E003C00E94E0193D
:104CD00080E06496E6E00C94BA6BA0E0B0E0E3E715
:104CE000F6E20C949D6BD82EEB017A0184E190E002
:104CF000E80EF91EF092D904E092D8048CEE9FEFF2
:104D0000E80EF91E82E290E00E94C6198D819E8114
:104D10000E9401198F8198850E94011969857A8501
:104D20008B859C850E9412196D857E858F8598895B
:104D30000E94121980E50E94F4188D2D8F730E9435
:104D4000F41884EB95E00E94011960E070E080E0C7
:104D500090E00E94121960917F057091800580910A
:104D60008105909182050E9452406093F4047093F3
:104D7000F5048093F6049093F70469817A818B811E
:104D80009C810E9452406093F8047093F9048093D0
:104D9000FA049093FB041092FC0486E08093FD04D7
:104DA0008091D8049091D9040E944E409093FF04C2
:104DB0008093FE044091D8045091D90481E062E2CE
:104DC00070E00E94B0248C0182E390E00E94C6193A
:104DD000C8010E94011986E00E940A25682F8823D5
:104DE00001F58D2D90E083709070892B41F08985BD
:104DF0009A85AB85BC850196A11DB11D0EC0E1143D
:104E0000F10479F0970140E050E089859A85AB85FF
:104E1000BC85820F931FA41FB51F89879A87AB8714
:104E2000BC87862FCDB7DEB7E7E00C94B96BA2E163
:104E3000B0E0EDE1F7E20C94A26B2091E804309130
:104E4000E904C901A0E0B0E08A839B83AC83BD8301
:104E50008091EA049091EB049F838E8339872887A1
:104E60001A861B861C861D868091F0049091F104A1
:104E7000A091F204B091F3040196A11DB11D8E879B
:104E80009F87A88BB98B84E0BE016F5F7F4F40E0A6
:104E900050E00E946D266296E2E00C94BE6BA8E0A2
:104EA000B0E0E5E5F7E20C94986B7C018091EC04AE
:104EB0009091ED040E94A11900E010E06E010894A9
:104EC000C11CD11C20ECA22E27E0B22EAE0CBF1CC0
:104ED00092E0892E9924939453C0C60165E070E056
:104EE0004AE00E94CA1B080F191FC60167EE70E056
:104EF0000E94F96B892B91F4E114F10419F08CEB09
:104F000096E002C08CEB95E06BEF70E04AE00E9407
:104F1000CA1B080F191FF501908232C0C60162EE4C
:104F200070E044E050E00E94126C892B19F4F50106
:104F3000808226C089818D30E1F48A818A30C9F46B
:104F40008091EE049091EF0408171907C8F0EE0C59
:104F5000FF1C8CEB97E0E80EF91E81E090E0F70172
:104F60009183808315C00F5F1F4F0E94A2188A3063
:104F700039F08091EE049091EF040817190798F327
:104F80008091EE049091EF040817190708F4A5CF5B
:104F90002896ECE00C94B46BCF93DF93EC01009770
:104FA00019F02CEB36E002C02CEB35E0FE01EE0FE1
:104FB000FF1FDF0143E0AA0FBB1F4A95E1F7AE0FC9
:104FC000BF1FAC56BA4F1C9211961D921D921D9296
:104FD0001C92149716961C921E92159718961C9266
:104FE0001E9217971D961D921D921D921C9250970E
:104FF00080E091E0D901AC011D9241505040E1F7B1
:10500000C054D84F1882E454F84F11821082DF91B7
:10501000CF910895A6E2B0E0E0E1F8E20C94946B41
:1050200000918D0510E0025F1F4FCE01439664E1B1
:1050300070E00E94DD188B899C890E944E409093FD
:10504000E9048093E8048D899E890E944E409093E4
:10505000EB048093EA046F89788D898D9A8D0E9484
:1050600052406093F0047093F1048093F2049093A3
:10507000F3042F8D2695269530E0C801820F931FEB
:105080009093ED048093EC048091D8049091D9041E
:10509000821B930B9093EF048093EE046091E004E5
:1050A0007091E1048091E2049091E3040E945240E7
:1050B0006093F4047093F5048093F6049093F704DE
:1050C0006091E4047091E5048091E6049091E70416
:1050D0000E9452406093F8047093F9048093FA049C
:1050E0009093FB041092FC0486E08093FD04809171
:1050F000D8049091D9040E944E409093FF0480936D
:10510000FE044091D8045091D90480E0B8010E9477
:10511000B024892B09F089C198A1992309F485C18C
:105120006090E0047090E1048090E2049090E304C9
:10513000E090E804F090E904A090EA04B090EB0459
:1051400004E915E0CC24DD246FEF7FEF2E010894F5
:10515000411C511CD201F80182E101900D92815055
:10516000E1F7AE81BF81E885F9852A813B814C81D9
:105170005D818981882331F48FEF6F3F780711F4C7
:10518000B6010BC0261537054805590531F4EE1553
:10519000FF0519F4AA15BB05C1F00894C11CD11C68
:1051A0000E5E1F4FE2E0CE16D104A1F6FFEF6F3F77
:1051B0007F0741F06B01C094D0948CE9C8168FEF43
:1051C000D80619F40E941727EFC0D7FE47C091FFF9
:1051D0002FC18091B8059091B905A816B90609F0BC
:1051E00027C1C094D094C601880F991F8C0143E059
:1051F000000F111F4A95E1F7080F191F0C561A4F9F
:10520000F8016182728283829482B682A582F086DE
:10521000E78281E080830E94CD3FF8016187728739
:10522000838794878091F0049091F104A091F20417
:10523000B091F3040196A11DB11D85879687A787BC
:10524000B08B8CE3818B82E1B80140E050E00E949A
:105250006D26F82E882309F4ECC053C091FF03C0DB
:105260000E9417274DC092FF0FC0B601660F771F2F
:10527000CB0123E0880F991F2A95E1F7680F791F6A
:105280006C567A4F84E038C090FF3FC0C601880F4B
:10529000991F8C01B3E0000F111FBA95E1F7080FB9
:1052A000191F0C561A4FF80120818091F00490913B
:1052B000F104A091F204B091F3040196A11DB11D77
:1052C00085879687A787B08B223079F480E1B80173
:1052D00040E050E00E946D2681E1B80140E050E0DE
:1052E0000E946D26F82E85E069C0233019F0263023
:1052F00009F09EC080E1B80140E050E00E946D26B8
:10530000F82EC6010E94CC2794C093FF5AC080910A
:10531000EE049091EF04009709F48AC05601AA0C9C
:10532000BB1C8501F3E0000F111FFA95E1F70A0D90
:105330001B1D0C561A4FF8012081213009F454C06E
:10534000223009F075C0A0E0B0E02091F004309167
:10535000F1044091F2045091F304820F931FA41FB3
:10536000B51FF80185879687A787B08B2581368181
:105370008091B8059091B90528173907B9F480E1F3
:10538000B80140E050E00E946D26F82EC6010E9450
:105390004F27F501E454F84F80819181019709F07E
:1053A00048C0C6010E947A46F82E43C081E1B80188
:1053B00040E050E00E946D26F82E83E0F8018083E3
:1053C00038C094FF35C0C601880F991F8C0173E067
:1053D000000F111F7A95E1F7080F191F0C561A4F8D
:1053E000F8018081813011F482E017C0823089F4A5
:1053F0008091EE049091EF04892BC1F280E1B80115
:1054000040E050E00E946D26F82EC6010E944F2712
:1054100010C0833021F486E0F801808309C0853014
:1054200039F4C6010E94CC2703C068E0F62E01C003
:10543000FF248F2DA696E0E10C94B06BCF93DF9301
:1054400008969093D9048093D80482E290E00E9459
:10545000C6198091EA049091EB040E940119809191
:10546000E8049091E9040E9401198091D804909178
:10547000D9040E94011980E090E00E940119609116
:105480007F057091800580918105909182050E9431
:1054900052406093F4047093F5048093F604909363
:1054A000F7046091E0047091E1048091E20490912E
:1054B000E3040E9452406093F8047093F9048093CF
:1054C000FA049093FB041092FC0481E18093FD04A4
:1054D0008091D8049091D9040E944E409093FF048B
:1054E0008093FE044091D8045091D90481E062E297
:1054F00070E00E94B024EC01009711F4CFEFDFEFD1
:1055000088E290E00E94C619CE010E94011981E153
:105510000E940A25DF91CF910895A0E1B0E0E3E970
:10552000FAE20C949E6BCE01099668E070E00E944E
:10553000DD1889859A850E944E409093E9048093F6
:10554000E8048B859C850E944E409093EB048093E9
:10555000EA048D859E850E944E408C0108501040C3
:105560001093EF040093EE04085F1F4F80918D05A8
:10557000E82EFF248EE090E0E80EF91E8F859889D2
:10558000892BC1F16091E0047091E1048091E20403
:105590009091E3040E9452406093F4047093F504E8
:1055A0008093F6049093F7046091E4047091E5040D
:1055B0008091E6049091E7040E9452406093F804C1
:1055C0007093F9048093FA049093FB041092FC0406
:1055D00081E18093FD048D859E859093FF048093E7
:1055E000FE0480E0B701A8010E94B024892B11F0CD
:1055F00089E052C0C70108969093ED048093EC04B3
:105600002091EA043091EB042B37310519F40E9404
:10561000AF3942C02532310519F40E948D3D3CC09E
:1056200044E02030340719F40E94123135C024348C
:10563000310519F40E94B82E2FC02938310519F40C
:105640000E94583229C047E221313407F1F40E9408
:10565000A1198E010F5F1F4FC80167E070E00E9423
:10566000DD18C80166EF70E047E050E00E94126C60
:10567000892B89F48AE290E00E94C6198DEE90E0B1
:105680000E94F81B0E941E2AFFCF2055334C19F4AC
:105690000E94625801C080E06096E6E00C94BA6B0C
:1056A0008091830890918408A0918508B091860824
:1056B0008093E0049093E104A093E204B093E304A8
:1056C00083E490E09093E9048093E80484E490E01C
:1056D0009093EB048093EA048AE290E00E94C6195A
:1056E00060E076E081E091E00E9412190E94CD3FD7
:1056F00060939708709398088093990890939A08FC
:105700000E94121980E090E00E94011980E090E070
:105710000E94011960E070E080E090E00E941219A0
:1057200080E06CE070E00E94431980E095E066E064
:1057300070E00E942B1980E06AEC70E00E9443192F
:1057400063E673E582E893E60E94121981E095E32F
:105750000E94011984E00E94F41882E30E94F41868
:1057600084E00E94F41860917F057091800580911B
:105770008105909182050E94121986E30E94F41817
:1057800084E00E94F41860918308709184088091ED
:105790008508909186080E9412198FEF0E94F418D4
:1057A00080E06CE270E00E9443198CE291E00E947C
:1057B0001E2A08950F931F9381E08093AE088FEF08
:1057C0009FEFAFEFBFEF8093E0049093E104A093CD
:1057D000E204B093E30483E490E09093E9048093BF
:1057E000E80484E490E09093EB048093EA04109240
:1057F00083051092840510928505109286051092FB
:105800007F051092800510928105109282051092FA
:10581000370A1092380A1092390A10923A0A1092F6
:105820008705109288051092890510928A051092BA
:105830007F081092800810928108109282081092BE
:105840007B0810927C0810927D0810927E081092BE
:105850008708109288081092890810928A0810927E
:10586000830810928408109285081092860810927E
:10587000930810929408109295081092960810922E
:105880008B0810928C0810928D0810928E0810923E
:105890008F0810929008109291081092920810921E
:1058A000A3081092A4081092A5081092A6081092BE
:1058B000B1080E94CD3F6093970870939808809339
:1058C000990890939A088AE290E00E94C61960E0D5
:1058D00076E081E091E00E94121960919708709142
:1058E00098088091990890919A080E94121960E096
:1058F00070E880E090E00E94121980E060E170E0C2
:105900000E94431900E015E0C80166E070E00E94C3
:105910002B1980E06AEC70E00E94431963E673E59E
:1059200082E893E60E94121981E095E30E94011932
:1059300081E00E94F4188DE30E94F41887E00E9431
:10594000F41881E00E94F418C80166E070E00E943B
:105950002B198FEF0E94F41880E06FE270E00E9434
:1059600043198CE291E00E941E2A1F910F91089525
:105970000F931F93182F8093AE08883129F08FEF73
:105980009FEFAFEFBFEF08C080918308909184082C
:10599000A0918508B09186088093E0049093E1047B
:1059A000A093E204B093E304133051F00E94CD3F82
:1059B00060939708709398088093990890939A0839
:1059C000E7E2FAE001900020E9F73197E752FA4068
:1059D0000E2F0F5F83E490E09093E9048093E80436
:1059E00084E490E09093EB048093EA048AE290E0F0
:1059F0000E94C61960E076E081E091E00E941219F1
:105A000060919708709198088091990890919A08F0
:105A10000E94121980E090E00E940119183119F0DB
:105A200080E090E802C080E090E00E94011960915F
:105A30007F057091800580918105909182050E947B
:105A4000121980E06CE070E00E94431980E095E05C
:105A500066E070E00E942B1980E06AEC70E00E9422
:105A6000431963E673E582E893E60E94121981E028
:105A700095E30E94011983E00E94F4188CE00E94D3
:105A8000F418802F0E94F41887E29AE0602F70E0EB
:105A90000E942B19133019F582E30E94F41884E058
:105AA0000E94F4188091EC049091ED0440960E94BD
:105AB000A1190E94C1180E94121986E30E94F418CD
:105AC00084E00E94F41860918308709184088091AA
:105AD0008508909186080E94121919E115C01631A7
